:020000040800F2
:10000000701F0020A1010008A9010008AB01000831
:10001000AD010008AF010008B101000800000000B8
:10002000000000000000000000000000B301000814
:10003000B501000800000000B7010008B901000880
:10004000BB010008BB010008BB010008091E000835
:10005000BB010008BB010008BB010008BB01000890
:10006000BB010008BB010008BB010008BB01000880
:10007000BB010008BB010008BB010008BB01000870
:10008000BB010008BB010008BB010008BB01000860
:100090004D270008BB01000841110008BB01000802
:1000A000BB010008BB010008BB010008BB01000840
:1000B00095220008BB010008BB010008BB01000835
:1000C000BB010008BB010008BB010008BB01000820
:1000D000BB010008B9230008BB010008BB010008F0
:1000E000BB010008BB010008BB01000800F002F8DA
:1000F00000F047F80AA090E8000C82448344AAF17B
:100100000107DA4501D100F03CF8AFF2090EBAE878
:100110000F0013F0010F18BFFB1A43F0010318473B
:100120009C260000BC260000103A24BF78C878C185
:10013000FAD8520724BF30C830C144BF04680C60ED
:10014000704700000023002400250026103A28BF35
:1001500078C1FBD8520728BF30C148BF0B60704739
:10016000642900F07D80002070471FB59DE80300E2
:1001700000F05CFC00F062F91FBD10B500F0C7F99B
:1001800010BD00F02AFA1146FFF7EFFF02F000FB66
:1001900000F01AFC03B4FFF7F0FF03BC00F0D8FD39
:1001A0000948804709480047FEE7FEE7FEE7FEE70B
:1001B000FEE7FEE7FEE7FEE7FEE7FEE70448054947
:1001C000054A064B70470000D1210008ED000008E9
:1001D00070190020701F0020701B0020701B002071
:1001E0000FB4044910B503AA029800F0D1F810BC6E
:1001F0005DF814FB681800202DE9F0410E46044616
:10020000002020622046E168884730B3252805D0C9
:10021000D4E901219047206A401CF2E7E1682046BA
:1002200000278847050018D0A5F14100192802D8F9
:1002300020354FF400673246294620462760FFF7F5
:100240008FFF40B1012804D0F61D26F007060836BE
:10025000D8E7361DD6E72846DAE7206ABDE8F08100
:100260002DE9F0410646002410687529314616A58F
:1002700010D0AFF30080002802DA404213A507E057
:1002800031688A0701D512A502E0490704D511A5F6
:10029000012401E0AFF3008000210A2206F12407C7
:1002A00009E0B0FBF2FCB0FBF2F302FB1C003030C3
:1002B00078541846491C0028F3D123462A46304674
:1002C000BDE8F04100F00BB8000000002D00000078
:1002D0002B000000200000007047704770472DE998
:1002E000F0470D4699469246044600F124080168FD
:1002F000880604D5E06921F01001216000E00120AA
:10030000A84201DD471B00E00027A1697A1902EB32
:100310000900081AA0612078C00602D42046AFF375
:100320000080002608E0D4E901211AF80600904771
:10033000206A401C761C20624E45F4DB2078C00603
:100340000AD52046AFF3008006E0D4E90121302031
:100350009047206A401C2062381EA7F10107F4DC98
:1003600007E0D4E9012118F805009047206A401CF5
:100370002062281EA5F10105F3DC2046AFF30080C2
:100380002078000602D50220BDE8F0870120FBE7B7
:10039000074B70B50D467B4400F039F804462846FB
:1003A00000F048F810B14FF0FF3070BD204670BD2E
:1003B000DB2300004FF0000200B51346944696463A
:1003C000203922BFA0E80C50A0E80C50B1F1200168
:1003D000BFF4F7AF090728BFA0E80C5048BF0CC016
:1003E0005DF804EB890028BF40F8042B08BF704774
:1003F00048BF20F8022B11F0804F18BF00F8012BE6
:100400007047000001694A1C02610878704700B516
:100410008FB0CDE901310021059105497944CDE93D
:10042000031011466846FFF7E7FE0FB000BD00005D
:10043000E5FFFFFF007B00F08000704710B54248E9
:100440005421FFF7B7FF41485421FFF7B3FF40485D
:100450005421FFF7AFFF3F493B483C4A3F4B086000
:100460003D490A603A491960531C0365481C1065F0
:10047000012008653B48344A39A1784400F008FA65
:1004800020B9384878440A3800F0A7FA37482F4A8C
:1004900035A1784400F0FCF920B9344878440A3892
:1004A00000F09BFA32482A4A2FA1784400F0F0F974
:1004B00020B92F4878440A3800F08FFA40232248A8
:1004C000DC000021224600F0BFF920B12548784425
:1004D000543800F082FA1D4822464023002100F0E3
:1004E000B3F920B121487844543800F076FA18481E
:1004F00022461023002100F0A7F9002806D01C484E
:100500007844BDE81040563800F067BA10BD104876
:1005100070B5006D20F001040B4800F02FFA0B4875
:1005200000F02CFA0A4800F029FA09E0206D20F0CA
:100530000105204600F022FA204600F073F82C4610
:10054000002CF3D170BD00001418002068180020A2
:10055000BC1800205000002054000020580000204B
:100560007200000032230000770000001E2300000C
:100570000A2300000EB5CDE9000100F0C9FB02908E
:1005800069460120ABBE0EBD08B569460090022049
:10059000ABBE08BD1FB58DE8070069460520ABBEA0
:1005A00004B010BD1FB58DE80F0069460620ABBE34
:1005B000F6E708B5694600900920ABBE08BD1CB53A
:1005C000CDE9000169460A20ABBE1CBD704708B5E5
:1005D000694600900C20ABBE08BD754600F004FAD9
:1005E000AE4605006946534620F00700854618B020
:1005F00020B5FFF7E3FDBDE820404FF000064FF0C7
:1006000000074FF000084FF0000B21F00701AC4647
:10061000ACE8C009ACE8C009ACE8C009ACE8C00966
:100620008D46704770B50446051F00F0E3F9006879
:10063000002C14BF446870BD002C18BFAC423CBFF6
:1006400020466468F8D301680A18AA4218BF4560BA
:1006500003D12A6805461144016028684119A14266
:100660001CBF6C6070BD61686960216808442860C7
:1006700070BD2DE9F04705460C46C86820F42010EF
:1006800040F48000C860800602D5084600F0FFFAFA
:10069000E06841F282014FF0FF390140022903D0A6
:1006A000204600F09DFAB5E000F42041B1F5004F7E
:1006B0000FD1C00306D56168E06A884200D80846B9
:1006C000606006E02069E06260606069FFF77FFFBC
:1006D000A061A0680022EEB200280DDAE1688B0567
:1006E0000AD4C043A06041F490302260E0606068AA
:1006F000411C61600670A5E0E0689046226040F40D
:100700000050E060206968BB6069FFF752FF012775
:1007100004F12405A0B1A08910F4407F08D0E0695D
:1007200000F0B3F9206118B1E06840F4006016E011
:10073000E7612561E06820F4407040F480600EE0DD
:10074000E06900F0A2F900282061F1D0E06840F4EF
:10075000006010F4407FE06002D140F48070E060FF
:1007600020696060E06825696FF0010AC1051FD546
:100770006168E06A884200D80846411B04D02246DE
:10078000284600F037FAF0BBE068010203D5E562C5
:10079000C4E9015854E0691CE1626160E16940F418
:1007A0008030491EC4E9021030462E70BDE8F08743
:1007B000010202D500F480320AE06068411C6160E9
:1007C0000670E0680A2E40F48030E06006D0002217
:1007D000E16A6068814203D90B4602E00122F7E733
:1007E0000346A7895B1B7F0503D4E7699F4200DDB1
:1007F000E2B1814200D80146E5620F1AC4E901580E
:10080000002B09DD00E005E022461946284600F0ED
:10081000F1F908B14846C9E747B1A069E5626560EA
:10082000C01BA061E06840F01000E060E0680002DA
:1008300008D56168A069E562491B08446560A0614C
:100840005046B3E73046B1E770B5C468A50713D08A
:10085000650211D4B2F5807F09D0B2F5007F06D0D1
:10086000B2F5806F08D1012300F1240106E05D1E7E
:100870006FF07F46B54201D3012070BD0161C361B5
:10088000416024F470611143C160002070BD00001C
:100890002DE9F0410C4607461646104600F06EF86A
:1008A0002078611C61280AD0722802D077283CD1B8
:1008B00002E00125002405E00225042402E00824CA
:1008C00048F2020511F8010B2B2806D0622809D046
:1008D00011F8010C74280AD00BE045F0030544F030
:1008E0000204EFE745F0040544F00104EAE744F0B0
:1008F000100438462146FFF73DFE411C15D000216B
:10090000316171604FF40071F560F1617061200731
:1009100004D530460222002100F0E6F8306D40F0A8
:10092000010030653046BDE8F0810020FBE72DE98D
:10093000F0410D460646104C206DC10704D0410819
:1009400004D020F00104F7E722460EE0542000F026
:100950009CF807000ED0206D47F001010843542198
:1009600020653846FFF726FD3A4629463046BDE861
:10097000F0418DE70020D6E7141800202DE9F0475C
:1009800004464FF000094FF0FF37C568D4E90486EC
:10099000A80707D0204600F057F93046FFF7F4FDCE
:1009A000002802DA3846BDE8F087280502D540461F
:1009B000FFF738FE4C212046FFF7FCFC206D20F0AD
:1009C000010020654846EEE710B50446AFF300800D
:1009D0002046BDE81040FFF7DDBB10B500F07EF902
:1009E000BDE8104000F074B90048704710190020AD
:1009F0007047000000487047181900207047704782
:100A00007047704738B504460A4600206946AFF380
:100A10000080002808BF38BD02460099204600F03B
:100A2000A4F9012038BD012000F0F3B9F8B5AFF307
:100A30000080054600200C46102000BF0646A8197D
:100A4000A0420DD9324669460020AFF3008007006E
:100A500008BF00F0DEF90098A04218BF0546C4198F
:100A6000FFF7C8FF05600746F01D20F00700461994
:100A7000284600F073F9B44208BFF8BDA21B314606
:100A80003868BDE8F84000F070B970B50646FFF769
:100A9000B1FF056806F10B0020F00704B4429CBFCB
:100AA000002070BD2B466A68BAB11068A04210D30E
:100AB00004F1080188423CBF5068586007D3516870
:100AC000101941601168091B016058601460101D05
:100AD00070BD13465268002AE7D121462846FFF729
:100AE00091FF0028DED170BD2DE9F0410446164685
:100AF0000D464769007B80072ED03846FFF759FD29
:100B000050BB3EB3012E02D0022E25D104E0204678
:100B100000F045F905441DE03846FFF758FDE1684F
:100B2000002841F01001E16005DA204600F058F895
:100B30000120BDE8F081C9030BD56268E16A9142EA
:100B400000D81146A26911442269891A814200DD48
:100B500008460544002D01DA0220EAE7E16A6068F0
:100B6000E268814206D29103E06203D522F40031AB
:100B700041F01002A6690027AE4213DCE16A81420F
:100B800001D90B4600E0034603EB060C2369ACEBEE
:100B9000030CAC4506DD814201D98C4600E0844659
:100BA0009C4505D1A760276042F02000A5620DE0BA
:100BB000AD1BE669AE1B8142A66000D90846C01A8B
:100BC000281A20605819606022F02000034908406C
:100BD000E060002084F84870ABE70000BFCFD7FF8B
:100BE000C16821F4001141F08001C16000218160E1
:100BF000016070472DE9F047814614460E464FF0DC
:100C0000FF383248D5685769054209D03846A1698E
:100C1000FFF7D5FC002811DB2C48C0430540E560F8
:100C20002B46324649463846FFF7B4FCA16920F00E
:100C30000042B21A11440028A16103D02046FFF7F8
:100C4000CFFF4046BDE8F08770B504460569C06A2D
:100C50006168884200D80846E16821F42011E1600B
:100C6000C90312D5A84208D02246411B2846FFF7E7
:100C7000C1FF10B14FF0FF3070BD0020E562C4E944
:100C80000150E06820F48030E060002070BD10B5B5
:100C90000446C06820F02000E060A16AA069884294
:100CA0000DD02046FFF7D0FFE06820F4405040F020
:100CB0001000E060A06AA0612069E062606044F218
:100CC0004001E0688843E06010BD000010000200B1
:100CD000002801D000F03CB87047000010B5014674
:100CE00002A000F07DF8012010BD000053494752DA
:100CF000545245443A2052656469726563743A20DF
:100D000063616E2774206F70656E3A2000000000EA
:100D100010B5431C02E010F8011B71B18107FAD134
:100D20004FF0013202C88C1A8C4314EAC211F9D078
:100D3000C01A0A0603D0C01E10BDC01A10BD0A0496
:100D400001D0801E10BD0902FCD0401E10BD000065
:100D500001491820ABBEFEE7260002000021016019
:100D6000C0E90110704710207047034640688C4668
:100D7000002818BF88423CBF03464068F8D3186873
:100D80001844884207D00CF1030020F00700001D32
:100D9000411A521A0146081D0A60FFF743BC10B5FC
:100DA0000146C268900703D0900607D5886A0AE01A
:100DB00000F03EF801210160881E10BD8B69486873
:100DC00018440B69C01A91F848301BB191F84910CA
:100DD000401A10BD1103FCD50028FADD401E10BDDD
:100DE00070B505460C460A2000E06D1C00F018F8AE
:100DF00035B128780028F8D102E0641C00F010F822
:100E000014B120780028F8D1BDE870400A2000F025
:100E100007B810B500F010F8BDE81040FFF758BF54
:100E200008B569468DF800000320ABBE08BD000080
:100E3000004870471019002010B5012805D0002186
:100E400003A0FFF7CDFF012010BD09A1F8E70000C6
:100E500053494752544D454D3A204F7574206F66A3
:100E60002068656170206D656D6F7279000000000B
:100E70003A2048656170206D656D6F727920636FEF
:100E8000727275707465640010B5044610211948BB
:100E900000F07AFD204601F03DF8002001F03AF81C
:100EA000FF2001F037F8FF2001F034F8FF2001F0B7
:100EB00031F810210F4800F069FD4FF480510E48C1
:100EC00000F062FD204601F099F8002001F096F84C
:100ED000FF2001F093F8FF2001F090F8FF2001F0CF
:100EE0008DF84FF48051044800F050FD012000F0CF
:100EF00065FC10BD00080140000C014010B5002445
:100F000006E0611DC8B2052100F0D8F8601CC4B22B
:100F1000082CF6DBFF21012000F0D0F8A020FFF71D
:100F2000B3FF10BD08B50121082000F0A5FDA020E9
:100F3000ADF8000003208DF8020010208DF80300AA
:100F40006946184800F08CFC4FF4A070ADF8000022
:100F500003208DF8020004208DF803006946114833
:100F600000F07EFC4FF48050ADF8000003208DF8B7
:100F7000020010208DF8030069460A4800F070FC5A
:100F80000121042000F078FD1020ADF800000320BE
:100F90008DF8020010208DF803006946024800F029
:100FA0005FFC08BD000C01400008014010B5FFF7D0
:100FB000B9FF00F067FF00F0D7FF20210B4800F0D9
:100FC000E3FC80210A4800F0DFFC012000F0F6FB82
:100FD0002021064800F0DAFC8021054800F0D6FC0C
:100FE000022000F0EBFBFFF789FF10BD000C014071
:100FF0000008014070B5002425E0002510212C4890
:1010000000F0C2FC002000F085FF002000F082FF0D
:10101000FF2000F07FFF45EA8025FF2000F07AFFE7
:1010200045EA8005FF2000F075FF0543B5F1004F4C
:1010300000D96D421F4840F8245010211C4800F090
:10104000A5FC601CC4B2082CD7DB00242CE00025D2
:101050004FF48051184800F097FC002000F05AFF30
:10106000002000F057FFFF2000F0C8FF45EA802570
:10107000FF2000F0C3FF45EA8005FF2000F0BEFF1F
:101080000543B5F1004F00D96D420A4904F108004B
:1010900041F820504FF48051074800F077FC0120C0
:1010A00000F08CFB601CC4B2082CD0DB70BD0000CB
:1010B00000080140D4170020000C014038B5044658
:1010C0000D469DF8010020F00100401C8DF8010044
:1010D000009864F34F200090009865F3070000909B
:1010E0001021154800F050FC9DF8010000F012FF9F
:1010F0009DF8000000F00EFFFF2000F00BFF102114
:101100000D4800F043FC4FF480510C4800F03CFCCB
:101110009DF8010000F072FF9DF8000000F06EFFE6
:10112000FF2000F06BFF4FF48051044800F02EFCCC
:10113000012000F043FB38BD00080140000C0140D5
:1011400010B50A480078012808D109480068401CF9
:101150000749086007480068074908604FF40061C4
:101160000448183800F00AF810BD00000200002002
:10117000040000201864004008000020B1F5007F42
:101180003AD00FDC202928D006DC01291CD0042904
:101190001DD0082940D11DE0402921D0B1F5807F24
:1011A0003AD126E0B1F5004F31D006DCB1F5806FC1
:1011B00025D0B1F5006F2FD124E0B1F5803F12D0DA
:1011C000B1F5003F28D111E0154A826025E00822E0
:1011D000C26022E01022C2601FE0082202611CE00F
:1011E0001022026119E00822426016E010224260DB
:1011F00013E00422426010E0042242600DE0042269
:1012000042600AE0002282610422426005E000227E
:1012100082610422426000E000BF00BF704700000E
:101220000101010000B589B00121042000F024FC77
:101230000121480600F000FC4FF48050ADF820007A
:1012400003208DF8220018208DF8230008A94D48AE
:1012500000F006FB4FF40060ADF8200048208DF848
:10126000230008A9474800F0FBFA00208DF81A0077
:101270008DF81B008DF81C008DF81D008DF81E00E8
:101280008DF81F008DF816008DF8170003208DF8DB
:10129000180000208DF819000620ADF8140005A9EB
:1012A000394800F002F900208DF80E008DF80F008B
:1012B00001208DF81000354800784005000CADF88D
:1012C000040032480078002141EA405080B2ADF875
:1012D00006004FF6FF70ADF80800ADF80A000020D8
:1012E000ADF80C0001208DF8110001A800F050F8B5
:1012F00001208DF80E0000208DF80F0001208DF8E0
:1013000010004FF4FF50ADF804000020ADF80600C7
:101310004FF4FF50ADF808000020ADF80A00ADF81A
:101320000C0001208DF8110001A800F031F8012215
:101330000221154800F0B0F814208DF800000120BB
:101340008DF8010000208DF8020001208DF80300C7
:10135000684600F02FFB01224FF408410A4800F0D4
:101360009BF816208DF8000000208DF80100012068
:101370008DF802008DF80300684600F01BFB09B0F1
:1013800000BD000000080140006400400000002093
:1013900010B50021837A012202FA03F13D4A126856
:1013A00042F001023B4B1A603A4A1C3212688A43EF
:1013B000384B1C331A60027BCAB9364A0C321268A9
:1013C0008A43344B0C331A604288C38842EA034391
:1013D000304A4032847A42F834300288838842EAC4
:1013E00003432C4A4032847A02EBC4025360027BEE
:1013F000012A19D1274A0C3212680A43254B0C33B3
:101400001A604288038842EA0343224A4032847ABF
:1014100042F83430C288838842EA03431D4A40328E
:10142000847A02EBC4025360C27A3AB9194A121D97
:1014300012688A43174B1B1D1A6006E0154A121DDD
:1014400012680A43134B1B1D1A60028932B9114AF4
:10145000143212688A430F4B14331A600289012A2E
:1014600006D10C4A143212680A430A4B14331A602C
:10147000427B012A06D1074A1C3212680A43054BF7
:101480001C331A60034A126822F00102014B1A60F1
:1014900010BD0000006600401AB143690B43436170
:1014A00002E043698B434361704730B50246002038
:1014B0000023146824F002041460146844F001044A
:1014C000146000E05B1C546804F001041CB94FF682
:1014D000FF74A342F6D1546804F001040CB9002053
:1014E0006CE08C79012C04D1146844F08004146001
:1014F00003E0146824F080041460CC79012C04D13A
:10150000146844F04004146003E0146824F04004BC
:1015100014600C7A012C04D1146844F02004146087
:1015200003E0146824F0200414604C7A012C04D1E8
:10153000146844F01004146003E0146824F01004EC
:1015400014608C7A012C04D1146844F008041460EF
:1015500003E0146824F008041460CC7A012C04D150
:10156000146844F00404146003E0146824F00404D4
:1015700014608C78A407CD7844EA05640D7944EAB8
:1015800005444D7944EA05540D886D1E2C43D46101
:10159000146824F001041460002300E05B1C54680C
:1015A00004F001041CB14FF6FF74A342F6D1546855
:1015B00004F001040CB1002000E0012030BD10B5A2
:1015C00000F5D87303EB01131B6803F004031372D7
:1015D000137A53B900F5D87303EB01131B6840F27B
:1015E000FF7404EA5353136009E000F5D87303EB6A
:1015F00001131B686FF0604404EAD303536000F5E5
:10160000D87303EB01131B6803F00203537200F558
:10161000D87303EB01135B6803F00F03937200F5BB
:10162000D87303EB01135B681B0AD37400F5D873FE
:1016300003EB01139B68D37200F5D87303EB01131E
:101640009B681C0A147300F5D87303EB01139B68A5
:101650001C0C547300F5D87303EB01139B681B0E2D
:10166000937300F5D87303EB0113DB68D37300F5B4
:10167000D87303EB0113DB681C0A147400F5D873EC
:1016800003EB0113DB681C0C547400F5D87303EBF7
:101690000113DB681B0E937421B9C36843F0200368
:1016A000C36003E0036943F02003036110BD000041
:1016B0002DE9F04180460E46002700245DE058F8F1
:1016C000240004EB84012F4A42F82100002509E0A0
:1016D00004EB84002B4901EB800050F825000744FF
:1016E000681CC5B2B542F3DB701EC5B210E004EB56
:1016F0008400244901EB8001681E51F8200004EBAE
:101700008401204A02EB810141F82500681EC5B220
:10171000002DECDC1C480068874204D21A4800689F
:101720001949086001E01848076000271748007849
:10173000012820D114480068B0FBF6F11448154A7E
:10174000127800EB821040F82410114811490978F2
:1017500000EB811050F824200E4801780EA0FEF70F
:101760003FFD0C480078401C0A49087000200649DB
:10177000086006490870601CC4B2102C9FDBBDE8ED
:10178000F081000014020020200000201200002040
:101790005403002024000020546865204E756D62BB
:1017A0006572204375703A25642C6368616E6E65BE
:1017B0006C2056416C75653A25640A000146114A51
:1017C00012784A434FF0E0235A6100229A611A4688
:1017D000126942F001021A6100BF4FF0E022106965
:1017E00000F001021AB100F48032002AF5D04FF067
:1017F000E022126922F001024FF0E0231A61002278
:101800009A6170470E00002008B50121082000F001
:1018100033F90320ADF800008DF8020010208DF898
:10182000030069460C4800F01BF803210A4800F049
:10183000ADF80121202000F01FF94FF44070ADF801
:10184000000003208DF8020004208DF80300694693
:10185000024800F005F808BD000C014000140140EA
:101860002DE9F04102460025002600200023002437
:10187000002791F803C00CF00F0591F803C00CF09D
:10188000100CBCF1000F03D091F802C04CEA050522
:1018900091F800C0BCF1000F31D0146800202BE09B
:1018A0004FF0010C0CFA00F3B1F800C00CEA03068B
:1018B0009E4220D183004FF00F0C0CFA03F7BC437B
:1018C00005FA03FC4CEA040491F803C0BCF1280FAC
:1018D00006D14FF0010C0CFA00FCC2F814C00AE06B
:1018E00091F803C0BCF1480F05D14FF0010C0CFA80
:1018F00000FCC2F810C0401C0828D1D31460B1F815
:1019000000C0BCF1FF0F34DD546800202EE000F170
:10191000080C4FF0010808FA0CF3B1F800C00CEA0B
:1019200003069E4221D183004FF00F0C0CFA03F7FF
:10193000BC4305FA03FC4CEA040491F803C0BCF173
:10194000280F05D100F1080C08FA0CF8C2F8148031
:1019500091F803C0BCF1480F07D100F1080C4FF01B
:10196000010808FA0CF8C2F81080401C0828CED3F1
:101970005460BDE8F0810246002093680B400BB133
:10198000012000E00020704741617047016170470D
:1019900010B500F091F84FF4A06000F043F8FFF7A5
:1019A00041FC00F05DFD00F043FCFFF72DFFFFF769
:1019B000FDFA10BD70B5002100230F22C47804B3D6
:1019C000154C246804F4E064C4F5E064210AC1F114
:1019D0000403CA40447804FA03F184781440214394
:1019E00009010E4C0678A155047804F01F05012466
:1019F000AC4005786D11AD0005F1E025C5F800415A
:101A000009E0047804F01F050124AC40044D067879
:101A1000761145F8264070BD0CED00E000E400E0D2
:101A200080E100E002490143024A11607047000072
:101A30000000FA050CED00E029B1064AD269024324
:101A4000044BDA6104E0034AD2698243014BDA6154
:101A5000704700000010024029B1064A1269024393
:101A6000044B1A6104E0034A12698243014B1A6174
:101A7000704700000010024029B1064A92690243F3
:101A8000044B9A6104E0034A92698243014B9A61D4
:101A9000704700000010024029B1064AD268024394
:101AA000044BDA6004E0034AD2688243014BDA60F7
:101AB000704700000010024010B500F089FB00F0F4
:101AC0004DF84FF4803000F00BF900F067F9044650
:101AD000012C1ED1002000F0F7F8002000F032F9B0
:101AE000A00200F023F94FF4E011200400F03CF9CB
:101AF000012000F033F900BF392000F0BFF80028C2
:101B0000FAD0022000F03EF900BF00F0D5F8082816
:101B1000FBD16FF0040000F047FB0B4800680B4955
:101B2000B0FBF1F00A4908700846007800EB40016C
:101B3000C1EBC0104FF6FF7101EAC00005490880F3
:101B4000054800F031F810BD2800002000127A008E
:101B50000E00002010000020700000200F480068D8
:101B600040F001000D490860084640680C490840F3
:101B70000A494860084600680A4908400749086061
:101B80000846006820F4802008600846406820F479
:101B9000FE0048604FF41F0088607047001002404C
:101BA0000000FFF8FFFFF6FE30B500210022002400
:101BB00000232D4D6D6805F00C0121B1042905D0DD
:101BC000082923D105E0294D056022E0274D056055
:101BD0001FE0254D6D6805F47012234D6D6805F406
:101BE0008034022505EB92421CB9214D5543056016
:101BF0000BE01D4D6D6805F400351DB11C4D5543BE
:101C0000056002E0194D5543056002E0174D05607F
:101C100000BF00BF144D6D6805F0F0010909154DB6
:101C20006B5C0568DD4045600F4D6D6805F4E06153
:101C3000090A104D6B5C4568DD4085600A4D6D6892
:101C400005F46051C90A0B4D6B5C4568DD40C56009
:101C5000054D6D6805F44041890B074D6B5CC56807
:101C6000B5FBF3F5056130BD0010024000127A00AB
:101C700000093D003C0000204C00002010B501464A
:101C80000022002300204A11012A02D1094C2368B6
:101C900006E0022A02D1074C236A01E0054C636A80
:101CA00001F01F02012494401C400CB1012000E00F
:101CB000002010BD001002400248406800F00C00F7
:101CC000704700000010024001460020034A50689F
:101CD00020F0F00008435060704700000010024000
:101CE0001149096821F480310F4A116011460968D1
:101CF00021F480211160B0F5803F03D0B0F5802F32
:101D00000ED106E00849096841F48031064A1160A5
:101D100007E00549096841F4A021034A116000E089
:101D200000BF00BF704700000010024001460020C5
:101D3000034A506820F4E060084350607047000098
:101D40000010024001460020034A506820F4605011
:101D500040EAC10050607047001002400149086627
:101D6000704700000000424202460020044B5868C1
:101D700020F47C1042EA01031843014B586070477D
:101D80000010024001460020034A506820F0030082
:101D900008435060704700000010024038B5002032
:101DA00000900024002500BF3120FFF767FF0546A3
:101DB0000098401C00900098B0F5A06F01D0002D55
:101DC000F2D03120FFF75AFF08B1012400E00024CF
:101DD000204638BD024909888143014A1180704775
:101DE0000428004001460020064A12880A40D0B26A
:101DF000044A121F12880A4012B108B1012000E003
:101E0000002070470428004010B50120FFF7EAFFCA
:101E10000220FFF7E7FF10B10220FFF7DBFF0520EC
:101E2000FFF7D8FF00F002F810BD000000BF034824
:101E3000008800F020000028F9D0704704280040F6
:101E400010B54FF480710C48FFF795FD012802D1C1
:101E50000A49087002E00020084908704FF4007138
:101E60000548FFF788FD012802D10549087002E006
:101E700000200349087010BD001401400C00002030
:101E80000D00002000B587B001210420FFF7F4FD0C
:101E900001210803FFF7D0FDE020ADF8180018205D
:101EA0008DF81B0003208DF81A0006A91748FFF7CC
:101EB000D7FCE0211548FFF769FD0020ADF80400CC
:101EC0004FF48270ADF806000020ADF80800022043
:101ED000ADF80A000120ADF80C004002ADF80E008C
:101EE0001820ADF810000020ADF812000720ADF862
:101EF000140001A9064800F0C5F80121044800F0CB
:101F0000A7F8FF2000F006F807B000BD0008014068
:101F10000030014070B50546002405E0601CC4B2E5
:101F2000C82C01DD002070BD02210E4800F09CF895
:101F30000028F3D029460B4800F0A2F8002405E061
:101F4000601CC4B2C82C01DD0020ECE7012105486B
:101F500000F08AF80028F3D0024800F08EF8C0B2F2
:101F6000E1E700000030014000B587B00121082002
:101F7000FFF782FD01218803FFF75EFD4FF460400B
:101F8000ADF8180018208DF81B0003208DF81A00FA
:101F900006A91848FFF764FC4FF460411548FFF7A5
:101FA000F5FC0020ADF804004FF48270ADF8060097
:101FB0000020ADF808000220ADF80A000120ADF8BD
:101FC0000C004002ADF80E001820ADF81000002003
:101FD000ADF812000720ADF8140001A9064800F082
:101FE00051F80121044800F033F8FF2000F006F812
:101FF00007B000BD000C01400038004070B5054638
:10200000002405E0601CC4B2C82C01DD002070BDB6
:1020100002210E4800F028F80028F3D029460B488A
:1020200000F02EF8002405E0601CC4B2C82C01DDCD
:102030000020ECE70121054800F016F80028F3D055
:10204000024800F01AF8C0B2E1E700000038004092
:1020500021B1028842F04002028004E002884FF67B
:10206000BF731A40028070470246002013890B405C
:102070000BB1012000E000207047014688897047BD
:102080008181704710B50022028802F441520B880A
:102090004C8823438C882343CC8823430C892343D7
:1020A0004C8923438C892343CC8923431A430280E0
:1020B000838B4FF2FF74234083830B8A038210BD0E
:1020C00010B500F001F810BD0CB500200190009093
:1020D0003348006840F480303149086000BF304820
:1020E000006800F4003000900198401C01900098B6
:1020F00018B90198B0F5A06FF1D12948006800F433
:10210000003010B10120009001E000200090009804
:10211000012843D12348006840F01000214908609D
:102120000846006820F0030008600846006840F098
:10213000020008601A48406819494860084640682B
:1021400048600846406840F480604860084640683F
:1021500020F47C1048600846406840F4E81048606D
:102160000846006840F08070086000BF0C480068B6
:1021700000F000700028F9D00948406820F0030002
:10218000074948600846406840F00200486000BFC8
:102190000348406800F00C000828F9D10CBD00008D
:1021A0000010024000200240042808D14FF0E02136
:1021B000096941F004014FF0E022116107E04FF09E
:1021C000E021096921F004014FF0E022116170471C
:1021D00010B51348006840F0010011490860084636
:1021E0004068104908400E494860084600680E499A
:1021F00008400B4908600846006820F48020086009
:102200000846406820F4FE0048604FF41F008860D4
:10221000FFF756FF4FF000600449086010BD000052
:10222000001002400000FFF8FFFFF6FE08ED00E09E
:102230001FB501210846FFF7FFFB4720ADF804005A
:102240000020ADF8060040F2E730ADF808000020AD
:10225000ADF80A008DF80C0001A94FF0804000F0A5
:1022600059F801224121880700F04AF81C208DF816
:10227000000001208DF8010003208DF802000120EC
:102280008DF803006846FFF795FB0121880700F0F1
:102290001AF81FBD10B50121880700F020F858B1C9
:1022A0000121880700F00CF8601CC4B20F2C03D188
:1022B000012002490870002410BD00001200002017
:1022C000CA430282704721B1028842F001020280B3
:1022D00004E002884FF6FE731A400280704730B562
:1022E0000246002000230024158A05EA010395898F
:1022F00005EA010413B10CB1012000E0002030BD5B
:102300001AB183890B43838102E083898B438381E4
:1023100070470000002202881D4B98420ED01D4BD2
:1023200098420BD0B0F1804F08D01B4B984205D09B
:102330001A4B984202D01A4B984204D14FF68F7331
:102340001A404B881A43174B984207D0164B9842B5
:1023500004D04FF6FF431A40CB881A4302808B8883
:1023600083850B8803850A4B98420BD0094B984212
:1023700008D00E4B984205D00D4B984202D00D4B21
:10238000984201D10B7A03860123838270470000B3
:10239000002C0140003401400004004000080040CF
:1023A000000C0040001000400014004000400140BC
:1023B000004401400048014010B540F22551124848
:1023C00000F002F988B140F225510F4800F02DF8D5
:1023D0000D4800F0B5F9C1B20C4802780078401CF5
:1023E0000A4B18700A4881540DE040F22441064817
:1023F00000F0EAF838B1044800880348001D00885E
:1024000001200449087010BD00380140140000206C
:102410004C0100201500002001F40072B2F5007F8D
:1024200000D100BFCA430280704710B500220023CC
:1024300040F66A14A14200D100BF0A120124944060
:10244000A3B2DC43048010BD21B1828942F4005262
:10245000828104E082894DF6FF731A4082817047C1
:1024600000B587B001210420FFF706FB0121880396
:10247000FFF702FB2B4800F059F84FF40070ADF85D
:10248000180003208DF81A0018208DF81B0006A9EB
:102490002548FFF7E5F94FF48060ADF818000420F7
:1024A0008DF81B0006A92048FFF7DAF94FF4E13058
:1024B00002900020ADF80C00ADF80E00ADF8100051
:1024C000ADF814000C20ADF8120002A9154800F078
:1024D000CBF825208DF8040000208DF805000120A0
:1024E0008DF806008DF8070001A8FFF763FA0122B6
:1024F00040F224410B4800F091F8012240F22551AE
:10250000084800F08BF840F225510648FFF78DFF90
:1025100040210448FFF780FF01210248FFF794FFA4
:1025200007B000BD003801400008014010B5044666
:102530002048844209D101218803FFF7ADFA002128
:102540004FF48040FFF7A8FA32E01B48844209D1DB
:1025500001214804FFF780FA00214FF40030FFF713
:102560007BFA25E01548844209D101218804FFF750
:1025700073FA00214FF48020FFF76EFA18E010483C
:10258000844209D10121C804FFF766FA00214FF403
:102590000020FFF761FA0BE00A48844208D10121CC
:1025A0000805FFF759FA00214FF48010FFF754FA9D
:1025B00010BD0000003801400044004000480040C9
:1025C000004C00400050004070B50246002400233B
:1025D0000025002040F66A16B14200D100BFC1F3C9
:1025E000421501F01F03012606FA03F3012D02D163
:1025F0009689334006E0022D02D1168A334001E06D
:10260000968A33400C12012606FA04F416883440E8
:1026100013B10CB1012000E0002070BDF0B50346FD
:10262000002400260025002040F66A17B94200D198
:1026300000BF1846C1F3421401F01F06012707FA34
:1026400006F5012C01D10C3004E0022C01D1103030
:1026500000E014301AB107682F43076002E00768F2
:10266000AF430760F0BD00002DE9F04786B0054696
:102670000E460024A24600BFA1460027B08900B143
:1026800000BF2F462C8A4CF6FF700440F0880443AC
:102690002C82AC894EF6F3100440B088318908438F
:1026A000718908430443AC81AC8A4FF6FF40044073
:1026B000B0890443AC8201A8FFF776FA1F4887422D
:1026C00002D1DDF810A001E0DDF80CA0A88900F42B
:1026D000004040B10AEBCA0000EB0A103168490023
:1026E000B0FBF1F807E00AEBCA0000EB0A10316812
:1026F0008900B0FBF1F86420B8FBF0F00401200978
:10270000642101FB1089A88900F4004040B1322007
:1027100000EBC900B0FBF1F000F00700044308E053
:10272000322000EB09106421B0FBF1F000F00F0043
:1027300004432C8106B0BDE8F0870000003801405A
:1027400001468888C0F308007047000010B50421D6
:102750000548FEF713FD054A00210348FEF72FFF49
:1027600001200349087010BD006400405C00002097
:10277000010000208A68002A01DCFDF77ABF521EA2
:102780008A604A68C0B2531C4B60107070470000EA
:10279000FFF7FEF808E0FEF72DFC0521034800686E
:1027A000FEF786FFFFF74CFBF5E70000D41700208B
:1027B0003A7474003A7474003A747400DC270008A8
:1027C000000000205C0000002801000838280008F4
:1027D0005C000020141F00004401000814000000E9
:1027E00000000000000000000000000000000000E9
:1027F00000000000000000000000000000000000D9
:102800000000000000A24A040000000000000000D8
:102810000102030406070809000000000102030486
:10282000010203040607080902040608000000006C
:082830000000000000000000A0
:04000005080000ED02
:00000001FF
